:100000009FEF00F00000000000EF00F00000000093
:0A0010000000000000000000F3D71C
:10001C0015C0E1FF16C0E2FFE66A010E1C14006E6B
:10002C0019C0E1FF1AC0E2FF00B002D0E69801D07F
:10003C00E68819C0E1FF1AC0E2FFE69219C0E1FFA1
:10004C001AC0E2FFE68419C0E1FF1AC0E2FFE6968F
:10005C0019C0E1FF1AC0E2FFE69017C0E1FF18C01B
:10006C00E2FF1BC0E6FF00000000000000000000E3
:10007C00000019C0E1FF1AC0E2FFE69219C0E1FFCF
:10008C001AC0E2FFE684090E0D6E0D2EFED700009D
:10009C00000019C0E1FF1AC0E2FFE682090E0D6EE6
:1000AC000D2EFED70000000019C0E1FF1AC0E2FFC0
:1000BC00E68019C0E1FF1AC0E2FFE68619C0E1FF35
:1000CC001AC0E2FFE69017C0E1FF18C0E2FF1DC0A6
:1000DC00E6FF00000000000000000000000019C056
:1000EC00E1FF1AC0E2FFE692090E0D6E0D2EFED74F
:1000FC000000000019C0E1FF1AC0E2FFE682090E01
:10010C000D6E0D2EFED70000000019C0E1FF1AC0C5
:10011C00E2FFE6800000000000000000000000008C
:02012C001200BF
:10012E000900F5CFE6FF0006FBE10106F9E112003A
:10013E00B8EC01F0220E1B6E1C6A1D6A68DF270EDA
:10014E001B6E1C6A1D6A63DF280E1B6E1C6A010E75
:10015E001D6E5DDF280E1B6E1C6A020E1D6E57DFB4
:10016E00280E1B6E1C6A040E1D6E51DF280E1B6EB0
:10017E001C6A050E1D6E4BDF280E1B6E1C6A060ECA
:10018E001D6E45DF2B0E1B6E1C6A1D6A40DF300E86
:10019E001B6E1C6A710E1D6E3ADF340E1B6E1C6ACE
:1001AE000D0E1D6E34DF380E1B6E1C6A330E1D6E67
:1001BE002EDF3C0E1B6E1C6A010E1D6E28DF400EDC
:1001CE001B6E1C6A230E1D6E22DF440E1B6E1C6AF4
:1001DE002D0E1D6E1CDF480E1B6E1C6A260E1D6E2C
:1001EE0016DF4C0E1B6E1C6A1D6A11DF500E1B6E45
:1001FE001C6A5F0E1D6E0BDF540E1B6E1C6A990E71
:10020E001D6E05DF580E1B6E1C6A5F0E1D6EFFDE27
:10021E005C0E1B6E1C6A940E1D6EF9DE600E1B6E5C
:10022E001C6A050E1D6EF3DE640E1B6E1C6A050E37
:10023E001D6EEDDE680E1B6E1C6A050E1D6EE7DE72
:10024E006C0E1B6E1C6A070E1D6EE1DE700E1B6EB1
:10025E001C6A020E1D6EDBDE740E1B6E1C6A020E15
:10026E001D6ED5DE780E1B6E1C6A020E1D6ECFDE65
:10027E007C0E1B6E1C6A020E1D6EC9DE800E1B6E7E
:10028E001C6A110E1D6EC3DE840E1B6E1C6A110ECF
:10029E001D6EBDDE880E1B6E1C6A110E1D6EB7DE46
:1002AE008C0E1B6E1C6AA60E1D6EB1DE900E1B6EA2
:1002BE001C6A1D6AACDE940E1B6E1C6A1D6AA7DEDC
:1002CE00980E1B6E1C6A1D6AA2DE9C0E1B6E1C6AAB
:1002DE001D6A9DDEB00E1B6E1C6A320E1D6E97DE01
:1002EE00B40E1B6E1C6AC00E1D6E91DE280E1B6EA8
:1002FE001C6A1D6A8CDEA40E1B6E1C6A220E1D6EFD
:10030E0086DEA00E1B6E1C6A690E1D6E80DE1F0E31
:10031E000B6E710E0C6E1E0E0D6E0D2EFED70C2E6C
:10032E00FCD70B2EFAD70000280E1B6E1C6AF00E9F
:10033E001D6E6DDE1F0E0B6E710E0C6E1E0E0D6E93
:10034E000D2EFED70C2EFCD70B2EFAD70000280E42
:0C035E001B6E1C6A1D6A5BDEDAD7FFD73D
:1003700010EE15F0060E006E010E016E6A0EF66E9E
:0E038000030EF76E000EF86E97EC00F0120000
:02036A00000091
:02036C0000008F
:02036E0000008D
:020000040030CA
:0E000000000C1F1EFF8381FF0FC00FE00F409A
:00000001FF
